:020000040800F2
:1000000030070020310200083F1300089511000856
:100010003D1300081F070008ED1300080000000052
:100020000000000000000000000000004313000872
:1000300021070008000000004113000845130008D4
:100040004B0200084B0200084B0200084B0200085C
:100050004B0200084B0200084B0200084B0200084C
:100060004B0200084B0200084B0200084B0200083C
:100070004B0200084B0200084B0200084B0200082C
:100080004B0200084B0200084B0200084B0200081C
:100090004B0200084B0200084B0200084B0200080C
:1000A0004B0200084B0200084B0200084B020008FC
:1000B0004B0200084B0200084B0200084B020008EC
:1000C0004B0200084B0200084B0200084B020008DC
:1000D0004B0200084B0200084B0200084B020008CC
:1000E0004B0200084B0200084B0200084B020008BC
:1000F0004B0200084B0200084B0200084B020008AC
:100100004B0200084B0200084B0200084B0200089B
:100110004B0200084B0200084B0200084B0200088B
:100120004B0200084B0200084B0200084B0200087B
:100130004B0200084B0200084B0200084B0200086B
:100140004B0200084B0200084B0200084B0200085B
:100150004B0200084B0200084B0200084B0200084B
:100160004B0200084B0200084B0200084B0200083B
:100170004B0200084B0200084B0200080000000080
:100180004B0200084B02000800F002F800F041F8B2
:100190000AA090E8000C82448344AAF10107DA45E2
:1001A00001D100F036F8AFF2090EBAE80F0013F0F3
:1001B000010F18BFFB1A43F0010318473476000003
:1001C00054760000103A24BF78C878C1FAD8520794
:1001D00024BF30C830C144BF04680C6070470000C1
:1001E0000023002400250026103A28BF78C1FBD840
:1001F000520728BF30C148BF0B607047782900F014
:10020000EB80002070471FB504F008FB1FBD10B540
:1002100010BD00F04AFA1146FFF7F5FF04F01EF991
:1002200000F068FA03B4FFF7F2FF03BC00F070FAC5
:100230000948804709480047FEE7FEE7FEE7FEE77A
:10024000FEE7FEE7FEE7FEE7FEE7FEE704480549B6
:10025000054A064B70470000DD13000889010008BD
:100260003001002030070020300300203003002040
:1002700053EA020C00F069802DE9F04B4FF00006C4
:10028000002B1FBFB3FA83F503FA05F424FA05F631
:100290005E4012BF1643B2FA82F502FA05F4C5F1C8
:1002A00020051EBF22FA05FC44EA0C04203556EA5C
:1002B000044C4FEA144418BF641C4FF000084FF080
:1002C0000009904271EB030C39D3002919BFB1FA30
:1002D00081F701FA07F6B0FA80F700FA07F6C7F1DE
:1002E00020071EBF20FA07FC46EA0C062037B6FBA3
:1002F000F4FCA7EB0507103F07F01F0BCBF120061E
:100300000CFA0BFB2CFA06F644BFB3460026202F4E
:10031000A4BF5E464FF0000B5BEA060C08BF4FF02F
:10032000010B19EB0B09ABFB027C48EB0608C01B69
:1003300006FB02CC0BFB03CC71EB0C01C1E70B46B7
:10034000024641464846BDE8F08B13B54FF0000029
:100350004FF00001AFF30080BDE81C407047000083
:100360000FB41CB5074B06AA7B446946009005985C
:1003700000F083F90020694600F092F91CBC5DF89A
:1003800014FB00003503000070B504468569006861
:10039000C10601D5302600E02026C00707D070BD79
:1003A000D4E9012130469047206A401C20626D1E2E
:1003B000F6D570BD70B5044685690078C00707D1D1
:1003C00070BDD4E9012120209047206A401C2062A2
:1003D0006D1EF6D570BD000070B504460D46214671
:1003E0001068AFF300802188090502D50F4A7A44CE
:1003F00002E00E4A7A440E32002104F1240305E0A3
:1004000000F00F060009965D5E54491C0028F7D1E4
:1004100020780023000704D5702D02D009B10223F3
:1004200011322046BDE8704000F0C8B8C473000027
:100430002DE9F05F894604464FF0000ADFF824B149
:10044000FB44C0F820A02046E168884700287DD002
:10045000252806D0D4E901219047206A401C20625B
:10046000F1E700255F462046E168884720280646D8
:1004700007DB312E05D2B81910F8200C08B105435E
:10048000F1E7A80701D525F00405C4F81CA0002752
:10049000C4F818A02A2E09D0304600F0B8FF38B3AF
:1004A00004EB8708303EC8F8186019E059F8041BBF
:1004B000204604EB87029161E1688847012F0646D8
:1004C00018D1E069002820DA25F020051DE0D8F8D1
:1004D000180000EB800006EB40003038C8F8180028
:1004E0002046E1688847064600F091FF0028EED1DB
:1004F000012F0AD02E2E08D12046E16888477F1CA4
:100500000646022F45F02005C4DBA069002803DA67
:10051000404245F00105A061E80701D025F0100533
:10052000A6B1A6F14100192802D8203645F400658D
:100530004A463146204625604D46FFF75FFE60B1D2
:10054000012807D0ED1D25F0070000E007E000F1CD
:10055000080978E705F1040975E730467AE7206A6B
:10056000BDE8F09F9A7300004FF0000200B51346FB
:1005700094469646203922BFA0E80C50A0E80C50C3
:10058000B1F12001BFF4F7AF090728BFA0E80C5074
:1005900048BF0CC05DF804EB890028BF40F8042B6D
:1005A00008BF704748BF20F8022B11F0804F18BFDA
:1005B00000F8012B70477047704770472DE9F047EE
:1005C0000D4699469246044600F1240801688806C3
:1005D00004D5E06921F01001216000E00120A8426B
:1005E00001DD471B00E00027A1697A1902EB090031
:1005F000081AA0612078C00602D42046FFF7C4FE86
:10060000002608E0D4E901211AF806009047206A84
:10061000401C761C20624E45F4DB2078C0060AD5CB
:100620002046FFF7B1FE06E0D4E9012130209047D3
:10063000206A401C2062381EA7F10107F4DC07E0A5
:10064000D4E9012118F805009047206A401C206277
:10065000281EA5F10105F3DC2046FFF7ABFE20784C
:10066000000602D50220BDE8F0870120FBE700006C
:1006700001694A1C02610878704700B58FB0CDE966
:1006800001310021059105497944CDE90310114656
:100690006846FFF7CDFE0FB000BD0000E5FFFFFF8D
:1006A0000A6802F8010B0A607047754600F02CF8E2
:1006B000AE4605006946534620F00700854618B04F
:1006C00020B5FFF7C3FDBDE820404FF000064FF016
:1006D00000074FF000084FF0000B21F00701AC4677
:1006E000ACE8C009ACE8C009ACE8C009ACE8C00996
:1006F0008D46704710B50446AFF300802046BDE834
:100700001040FFF78FBD000000487047D000002068
:1007100001491820ABBEFEE7260002007047FEE745
:10072000704772B6FEE7000030B5B3F5804F05D0D4
:100730006FF0704140F82210002030BD8C690B68CA
:100740008D6823434C688989240144EA05242343A6
:1007500043EA014150F82230014C23401943E9E7B4
:100760000000F0CF10B50A6850F8223023F00103E2
:1007700040F822308C68082C23D000234A6822439A
:10078000CC681C430B6922431A434B690E4C1A4335
:10079000CB691A430B6A1A434B6A1A438B6A1A4392
:1007A000CB6A1A430B6B1A438B691343CA6B0968F4
:1007B0001A4350F82130A343134340F8213000205E
:1007C00010BD4023DAE700007FFF0F0030B5D1E90C
:1007D000003443EA04138C688D89240244EA0544FA
:1007E00023430C8A094D00EB820005EB045423439C
:1007F0000C7D6D0105EB0464896923430B4341685B
:1008000001F040410B434360002030BD0000F0FF89
:1008100070B5044600F068F90546601C02D0044833
:100820000078044400F060F9401BA042FAD370BD88
:10083000080000202DE9F04186B014216846FFF73A
:1008400093FE20480168002939D1012101601E482A
:100850000024016841F00101016000684FF48058F4
:1008600000F001000C27CDF80080CDE904700326CC
:1008700002250396CDE901546946144800F02EF88C
:100880004FF68070CDE9000502AA694682E8D000E3
:100890000F4800F023F84CF23370CDE9000502AAAE
:1008A000694682E8D0000B4800F018F802AA6946B1
:1008B00082E8D000CDE90085074800F00FF806B0C7
:1008C000BDE8F081000000203838024000140240EA
:1008D00000100240000C0240001802402DE9F84FC1
:1008E000DFF8BCA10022012503264FF00F090AF111
:1008F000040BAAF1040E00BF0B6805FA02F42340B2
:10090000A34270D10F7907F00307012F01D0022F06
:1009100016D187684FEA420806FA08FC27EA0C0756
:10092000D1F80CC00CFA08FC4CEA070CC0F808C05F
:100930004768A7430C79C4F3001494403C434460D7
:100940000C79E443A4070AD0C4684FEA420C06FAC3
:100950000CF7BC438F6807FA0CF72743C7600C7984
:1009600004F00304022C12D1D40800EB840CDCF850
:1009700020405707FF0E09FA07F824EA0804D1F8C7
:10098000108008FA07F848EA0408CCF820800468C8
:100990004FEA420C06FA0CF7BC430F7907F0030745
:1009A00007FA0CF7274307604C6814F4403F70D0F7
:1009B0003C4C276847F480472760246822F00307EF
:1009C00004F480440094384C07EB040CDCF808482D
:1009D00097074FEA177809FA08F7BC43334FB84234
:1009E00002D1002724E054E0314FB84201D1012761
:1009F0001EE0304FB84201D1022719E02E4FB84215
:100A000001D1032714E02D4FB84201D104270FE094
:100A10002B4FB84201D105270AE02A4FB84201D135
:100A2000062705E0284FB84201D1072700E0082734
:100A300007FA08F72743CCF80878DAF80040574659
:100A4000D1F804C09C435FEACC2C00D51C433C6029
:100A5000DBF800405F46D1F804C09C435FEA8C2C71
:100A600000D51C433C60DEF800407746D1F804C056
:100A70009C435FEA8C3C00D51C433C60084F083F18
:100A80003C68D1F804C09C435FEACC3C00D51C43D1
:100A90003C60521C102AFFF42FAFBDE8F88F000015
:100AA000083C014044380240003001400000024050
:100AB0000004024000080240000C02400010024006
:100AC0000014024000180240001C0240426921EA62
:100AD00002030A4043EA0241816170470AB1816121
:100AE00070470904FBE70000014880687047000078
:100AF0000800002002488168027811448160704734
:100B0000080000200B4810B5016841F40071016035
:100B1000016841F480610160016841F48071016005
:100B2000032000F061F80F2000F006F800F024F830
:100B3000002010BD003C024070B50D4D04464FF43E
:100B40007A712878B1FBF0F00A490968B1FBF0F03E
:100B500000F00CFB48B9102C07D200222146501E91
:100B600000F022F800206C6070BD012070BD000014
:100B700008000020140000200A4808B5016841F46C
:100B800080410160006800F4804000900548001F2B
:100B9000016841F080510160006800F080500090D1
:100BA00008BD000044380240F0B40E4B1B680C46F0
:100BB000C3F30223C3F10705042D00D90425191D31
:100BC000072901D2002300E0DB1E012606FA05F109
:100BD000491E214099409E40761E16403143F0BC8C
:100BE00000F005BC0CED00E0064900F007020868C3
:100BF0004FF6FF03184040EA0220034A1043086002
:100C0000704700000CED00E00000FA052DE9F04708
:100C10000E46050065D0DFF81481D8F80000F7B261
:100C200000F00700B04207D288F80070D8F8000042
:100C300000F00700B04254D128683D4C810712D51E
:100C4000400703D5206840F4E05020602878000772
:100C500003D5206840F4604020602068A96820F037
:100C6000F000084320602878C0072DD0304968681C
:100C70000839012812D0022813D0032811D009689E
:100C8000890700292DDA216821F003010143216041
:100C9000FFF72AFF814641F2883A0EE0096889038E
:100CA000EFE709688901ECE7FFF71EFFA0EB0901F8
:100CB000514502D90320BDE8F0872068696800F03B
:100CC0000C00B0EB810FEFD1D8F80010404601F0D6
:100CD0000701B14207D90770006800F00700B04271
:100CE00001D00120E7E72878400705D52068E968AA
:100CF00020F4E050084320602878000706D52068DB
:100D0000296920F4604040EAC100206000F018F832
:100D10002168084AC1F30311515CC84006490860C4
:100D200006480068FFF708FF0020C4E7003C0240C7
:100D30000838024026480008140000200C0000205B
:100D4000154810B5006810F00C02144813D041107B
:100D5000042A0FD0082A0ED10F4C241F22682368C2
:100D600002F03F025B0207D52068C0F38810A0FBA9
:100D7000010106E0084610BD2168C1F38811A1FBFE
:100D800000010023FFF774FA2168C1F30141491CF7
:100D90004900B0FBF1F010BD083802400024F40017
:100DA0002DE9F84F04006ED02078DFF84C93C0078F
:100DB000A9F104054AD009F104000168C1F38101D9
:100DC000012908D00068C0F3810002280AD1D9F8AF
:100DD0000000400206D52868800337D560680028E7
:100DE000E1D033E06068B0F5803F10D0B0F5A02FBF
:100DF000286810D020F480302860286820F48020F3
:100E000028606068A8B1FFF76FFE06460DE028680D
:100E100040F48030F4E740F480202860F7E700BF1A
:100E2000FFF762FE801B642873D828688003F7D51B
:100E30000CE0FFF759FE064605E000BFFFF754FE41
:100E4000801B6428F0D828688003F7D42078DFF866
:100E5000AC8280074FF0000A3ED5A748001D01680C
:100E600011F00C0F08D00068C0F3810002280BD1EC
:100E7000D9F80000400207D42868800716D5E0683A
:100E8000012800D112E033E1E068B8B10120C8F8D0
:100E90000000FFF729FE064605E000BFFFF724FE2D
:100EA000801B0228C0D828688007F7D528682169E8
:100EB00020F0F80040EAC10028600DE0C8F800A06A
:100EC000FFF712FE064604E0FFF70EFE801B022825
:100ED0001FD828688007F7D42078000722D5864FCE
:100EE00087486169703771B101210160FFF7FCFD2E
:100EF000064604E0FFF7F8FD801B022809D8386891
:100F00008007F7D50EE0C0F800A0FFF7EDFD06461C
:100F100005E082E0FFF7E8FD801B02287DD83868F5
:100F20008007F7D42078400768D5DFF8CCB10027D8
:100F30000BF13C0BDBF80000C0000BD4DBF8001019
:100F400041F08051CBF80010DBF80000012700F0E1
:100F5000805000906B4E3068C00510D4306840F46B
:100F600080703060FFF7C0FD009005E0FFF7BCFD2A
:100F70000099401A022850D83068C005F6D55E4E58
:100F8000A0686C3601280FD00528306810D020F0FA
:100F900001003060306820F004003060A068B8B113
:100FA000FFF7A2FD00900FE0306840F00100F4E789
:100FB00040F004003060F7E7FFF796FD0099411A12
:100FC00041F28830814266D830688007F4D50EE05F
:100FD000FFF78AFD009007E0FFF786FD0099411AB0
:100FE00041F28830814256D830688007F4D42FB15E
:100FF000DBF8001021F08051CBF80010A069C8B3D5
:101000003D49091D0968C1F3810102294AD002281E
:10101000504607D0C8F8600000E03CE0FFF764FDF0
:1010200004463BE04746C8F86000FFF75DFD064612
:1010300005E000BFFFF758FD801B02282BD8286869
:101040008001F7D4D4E907010843A16A2E4A490870
:1010500002EB0141626A41EA8211084394F82C10C4
:1010600040EA0161C9F8001001203866FFF73CFD35
:10107000044606E03EE000BFFFF736FD001B0228F5
:1010800009D828688001F7D534E000BFFFF72CFDB0
:10109000001B022802D90320BDE8F88F28688001D0
:1010A000F4D427E00128F7D0D9F80000E26900F471
:1010B000800191421CD1226A00F03F01914217D178
:1010C00047F6C071626A0140B1EB821F10D1A26A7B
:1010D0004FF0FF3300F4403103EB5202B1EB024F0B
:1010E00006D194F82C1000F07060B0EB016F01D0C5
:1010F0000120D1E70020CFE704380240000047423A
:10110000800E4742007000400000FFFF70B515469A
:101110000E46040003D094F8490010B107E0012006
:1011200070BD002084F84800204600F01DF804F14E
:1011300008012068FFF716FB3146A2682068FFF718
:1011400045FBD4E901022946236BFFF7EDFA21683C
:10115000A06851F8202042F0010241F8202001202F
:1011600084F84900002070BDFFF764BB10B5401E35
:10117000B0F1807F01D3012010BD4FF0E024606109
:101180000F21601700F033F90020A06107202061D3
:10119000002010BDFEE7000010B58EB01C2168468F
:1011A000FFF7E2F91C2107A8FFF7DEF91A484FF014
:1011B000204110220160194941600621816000210F
:1011C000C160C0E904128161C16113020162C0E91A
:1011D00009139302C0E90B13416381634164022048
:1011E00000900F20CDE9010203AC112384E80E002A
:1011F00004240691CDE9074009AC092084E80F00DA
:101200000D9107AA69460448FFF780FF002801D026
:10121000FFF787FA0EB010BD20000020040100A0E7
:101220002DE9F04186B014216846FFF79DF93E484C
:101230000024016841F010010160016801F0100113
:101240000591016841F004010160016801F00401A9
:101250000591016841F020010160016801F0200161
:101260000591016841F080010160016801F0800191
:101270000591016841F001010160016801F001017F
:101280000591016841F002010160016801F002016D
:101290000591016841F008010160016801F0080151
:1012A0000591016841F04001016000681F4F00F0A6
:1012B0004000059000224FF480713846FFF70EFC85
:1012C00001224FF4C0613846FFF708FCDFF8608068
:1012D0004FF40046002231464046FFF7FFFB1C203A
:1012E00001258DE8310069461248FFF7F7FA4FF4FF
:1012F000E0600090CDE90154694638460394FFF759
:10130000EDFA02200095CDE9014069460A48FFF751
:10131000E5FA0096CDE90154694640460394FFF78B
:10132000DDFA06B0BDE8F08130380240001402401A
:10133000000402400010024000000240FEE7FEE709
:1013400070477047FFF7D6BB30B593B03021684681
:10135000FFF70AF914210CA8FFF706F91D4800252C
:10136000016841F080510160006800F080501190E8
:101370001948016841F4804101600068022400F4CA
:101380008040119001200090000401908001CDE97F
:10139000064008AA0420A82182E813000B906846A2
:1013A000FFF7FEFC08B172B6FEE70CA90F2081E83A
:1013B00031004FF4A0500F904FF480501090052151
:1013C0000CA8FFF723FC002801D072B6FEE713B08B
:1013D00030BD000040380240007000400248016803
:1013E00041F470010160704788ED00E0FEE70907F5
:1013F000090E002804DB00F1E02080F8001470479B
:1014000000F00F0000F1E02080F8141D7047303824
:101410000A2801D2012070470020704770B50A49A0
:101420000646002408884D8821464543204602F0A0
:10143000B1FE03F003F84FF0D84002E0A0F880605E
:10144000641CAC42FAD370BDC00000202DE9F04FFF
:1014500038492C260A46887192884FF4305A4FF446
:10146000285B41F6631E2B274FF02A0C4FF0F00843
:1014700045F210594FF448754FF4A0744FF4F073CF
:1014800058B10C80A1F802804A4530D1A1F808A0DB
:10149000A1F80AB03802888141E0A1F800804C80B0
:1014A0004A4507D1A1F808A0A1F80AB04FF42C5082
:1014B000888105E072450E8105D14F81A1F80CC0ED
:1014C0000B804D8002E0A1F80AC08F81A2F5A640F2
:1014D000103803D0A2F5EE40963801D10C804B8035
:1014E000A2F5184006381FD10B804D801CE07245D4
:1014F00011D0A2F5184006380DD00E81A1F80AC00F
:10150000A1F80C70A2F5A64010380BD0A2F5EE4061
:10151000963807D008E00E81A1F80AC08F810D80AF
:101520004B80EFE70B804C80BDE8F04F002002F0CD
:101530006FBD0000C000002010B5144602F02AFE66
:1015400002F07CFF4FF0D840A0F8804010BD10B5ED
:10155000CF2002F067FF002002F058FFC12002F008
:1015600055FF302002F052FFED2002F05BFF6420B7
:1015700002F04CFF032002F049FF122002F046FF68
:10158000812002F043FFE82002F04CFF852002F0AA
:101590003DFF102002F03AFF7A2002F037FFCB2007
:1015A00002F040FF392002F031FF2C2002F02EFF24
:1015B000002002F02BFF342002F028FF022002F06E
:1015C00025FFF72002F02EFF202002F01FFFEA2067
:1015D00002F028FF002002F019FF002002F016FFA1
:1015E000C02002F01FFF1B2002F010FFC12002F0FC
:1015F00019FF012002F00AFFC52002F013FF30207E
:1016000002F004FF302002F001FFC72002F00AFFC1
:10161000B72002F0FBFE362002F004FF482002F063
:10162000F5FE3A2002F0FEFE552002F0EFFEB1205A
:1016300002F0F8FE002002F0E9FE1A2002F0E6FEB9
:10164000B62002F0EFFE0A2002F0E0FEA22002F037
:10165000DDFEF22002F0E6FE002002F0D7FE26209A
:1016600002F0E0FE012002F0D1FEE02002F0DAFEFE
:101670000F2002F0CBFE2A2002F0C8FE282002F044
:10168000C5FE082002F0C2FE0E2002F0BFFE0820B8
:1016900002F0BCFE542002F0B9FEA92002F0B6FE12
:1016A000432002F0B3FE0A2002F0B0FE0F2002F049
:1016B000ADFE002002F0AAFE002002F0A7FE0020EE
:1016C00002F0A4FE002002F0A1FEE12002F0AAFE3A
:1016D000002002F09BFE152002F098FE172002F079
:1016E00095FE072002F092FE112002F08FFE0620E8
:1016F00002F08CFE2B2002F089FE562002F086FEBE
:101700003C2002F083FE052002F080FE102002F053
:101710007DFE0F2002F07AFE3F2002F077FE3F2090
:1017200002F074FE0F2002F071FE2B2002F07AFE10
:10173000002002F06BFE002002F068FE012002F0A3
:1017400065FE3F2002F062FE2A2002F06BFE0020C0
:1017500002F05CFE002002F059FE002002F056FE6E
:10176000EF2002F053FE112002F05CFE7820FFF71C
:101770004FF8BDE81040292002F054BE10B5FF20FC
:1017800002F050FEFF2002F041FE982002F03EFEE3
:10179000062002F03BFEBC2002F044FE012002F0D5
:1017A00035FE0F2002F032FE612002F02FFEFF20F6
:1017B00002F02CFE012002F029FE012002F026FE9C
:1017C0000B2002F023FE102002F020FE372002F052
:1017D0001DFE632002F01AFEFF2002F017FEFF201C
:1017E00002F014FE012002F011FE012002F00EFEB4
:1017F000002002F00BFE002002F008FEFF2002F0A5
:1018000005FE522002F002FE012002F0FFFD002042
:1018100002F0FCFD402002F0F9FDBD2002F002FEC6
:10182000012002F0F3FD232002F0F0FD452002F03C
:10183000EDFD672002F0EAFD012002F0E7FD232024
:1018400002F0E4FD452002F0E1FD672002F0DEFD3C
:10185000BE2002F0E7FD002002F0D8FD012002F0DA
:10186000D5FDAB2002F0D2FD602002F0CFFD22209A
:1018700002F0CCFD222002F0C9FD222002F0C6FDBC
:10188000222002F0C3FD222002F0C0FDC72002F09A
:10189000C9FD362002F0BAFDED2002F0C3FD7F2025
:1018A00002F0B4FD0F2002F0B1FDC02002F0BAFD3D
:1018B0000F2002F0ABFD0B2002F0A8FD0A2002F081
:1018C000A5FDFC2002F0AEFD082002F09FFDDF2008
:1018D00002F0A8FD002002F099FD002002F096FD24
:1018E000002002F093FD002002F090FD002002F0A5
:1018F0008DFD202002F08AFDF32002F093FD74207C
:1019000002F084FDB42002F08DFD002002F07EFD87
:10191000002002F07BFD002002F078FDF72002F0AD
:1019200081FD822002F072FDB12002F07BFD0020DB
:1019300002F06CFD132002F069FD132002F066FD39
:10194000F22002F06FFD802002F060FD042002F022
:101950005DFD402002F05AFD282002F057FDC12015
:1019600002F060FD172002F051FD882002F04EFDCC
:10197000882002F04BFD202002F048FDE02002F01C
:1019800051FD002002F042FD0A2002F03FFD12202E
:1019900002F03CFD102002F039FD0E2002F036FD71
:1019A000202002F033FDCC2002F030FD072002F0B1
:1019B0002DFD062002F02AFD0B2002F027FD0E204F
:1019C00002F024FD0F2002F021FD0D2002F01EFD8B
:1019D000152002F01BFD102002F018FD002002F07F
:1019E00015FDE12002F01EFD002002F00FFD0B208E
:1019F00002F00CFD132002F009FD0D2002F006FD9F
:101A00000E2002F003FD1B2002F000FD712002F009
:101A1000FDFC062002F0FAFC062002F0F7FC0A208A
:101A200002F0F4FC0F2002F0F1FC0E2002F0EEFCBC
:101A30000F2002F0EBFC152002F0E8FC0C2002F075
:101A4000E5FC002002F0E2FC2A2002F0EBFC002082
:101A500002F0DCFC002002F0D9FC012002F0D6FCF0
:101A6000DF2002F0D3FC2B2002F0DCFC002002F08F
:101A7000CDFC002002F0CAFC032002F0C7FC1F20AE
:101A800002F0C4FC3A2002F0CDFC552002F0BEFC6E
:101A9000362002F0C7FC002002F0B8FC112002F052
:101AA000C1FC7820FEF7B4FE292002F0BBFC142014
:101AB000FEF7AEFEBDE810402C2002F0B3BC10B51E
:101AC000ED2002F0AFFC012002F0A0FCFE2002F0AD
:101AD0009DFCEE2002F0A6FCDE2002F097FC212007
:101AE00002F094FCF12002F09DFC012002F08EFC3B
:101AF000DF2002F097FC102002F088FCC42002F0E6
:101B000091FC8F2002F082FCC62002F08BFC0020AA
:101B100002F07CFCE22002F079FCE22002F076FC8C
:101B2000E22002F073FCBF2002F07CFCAA2002F04D
:101B30006DFCB02002F076FC0D2002F067FC002066
:101B400002F064FC0D2002F061FC002002F05EFC5B
:101B5000112002F05BFC002002F058FC192002F07A
:101B600055FC002002F052FC212002F04FFC002026
:101B700002F04CFC2D2002F049FC002002F046FC53
:101B80003D2002F043FC002002F040FC5D2002F00A
:101B90003DFC002002F03AFC5D2002F037FC002002
:101BA00002F034FCB12002F03DFC802002F02EFC5B
:101BB000002002F02BFC8B2002F028FC002002F019
:101BC00025FC962002F022FC002002F01FFCB2202F
:101BD00002F028FC002002F019FC002002F016FCA4
:101BE000022002F013FC002002F010FC032002F09F
:101BF0000DFC002002F00AFCB32002F013FC0020D0
:101C000002F004FC002002F001FC002002F0FEFBC8
:101C1000002002F0FBFB002002F0F8FB002002F0A5
:101C2000F5FB002002F0F2FB002002F0EFFB0020A9
:101C300002F0ECFB002002F0E9FB002002F0E6FBE2
:101C4000002002F0E3FB002002F0E0FB002002F0A5
:101C5000DDFB002002F0DAFB002002F0D7FB0020C1
:101C600002F0D4FB002002F0D1FB002002F0CEFBFA
:101C7000002002F0CBFB002002F0C8FB002002F0A5
:101C8000C5FB002002F0C2FB002002F0BFFBB42025
:101C900002F0C8FB8B2002F0B9FB002002F0B6FB7B
:101CA000962002F0B3FB002002F0B0FBA12002F06E
:101CB000ADFB002002F0AAFBB52002F0B3FB02202E
:101CC00002F0A4FB002002F0A1FB032002F09EFB27
:101CD000002002F09BFB042002F098FB002002F0A1
:101CE00095FBB62002F09EFB002002F08FFB002047
:101CF00002F08CFBB72002F095FB002002F086FB7F
:101D0000002002F083FB3F2002F080FB002002F065
:101D10007DFB5E2002F07AFB002002F077FB64205E
:101D200002F074FB002002F071FB8C2002F06EFBCD
:101D3000002002F06BFBAC2002F068FB002002F0F8
:101D400065FBDC2002F062FB002002F05FFB7020EC
:101D500002F05CFB002002F059FB902002F056FBE1
:101D6000002002F053FBEB2002F050FB002002F0B9
:101D70004DFBDC2002F04AFB002002F047FBB820BC
:101D800002F050FB002002F041FB002002F03EFB7D
:101D9000002002F03BFB002002F038FB002002F0A4
:101DA00035FB002002F032FB002002F02FFB002068
:101DB00002F02CFBBA2002F035FB242002F026FBB7
:101DC000002002F023FB002002F020FB002002F0A4
:101DD0001DFBC12002F026FB202002F017FB002093
:101DE00002F014FB542002F011FB002002F00EFB65
:101DF000FF2002F00BFB002002F008FBC22002F0E3
:101E000011FB0A2002F002FB002002F0FFFA04207E
:101E100002F0FCFA002002F0F9FAC32002F002FB03
:101E20003C2002F0F3FA002002F0F0FA3A2002F02F
:101E3000EDFA002002F0EAFA392002F0E7FA002079
:101E400002F0E4FA372002F0E1FA002002F0DEFAB4
:101E50003C2002F0DBFA002002F0D8FA362002F033
:101E6000D5FA002002F0D2FA322002F0CFFA002098
:101E700002F0CCFA2F2002F0C9FA002002F0C6FAD4
:101E80002C2002F0C3FA002002F0C0FA292002F050
:101E9000BDFA002002F0BAFA262002F0B7FA0020BC
:101EA00002F0B4FA242002F0B1FA002002F0AEFAF7
:101EB000242002F0ABFA002002F0A8FA232002F05E
:101EC000A5FA002002F0A2FA3C2002F09FFA0020BE
:101ED00002F09CFA362002F099FA002002F096FAFD
:101EE000322002F093FA002002F090FA2F2002F044
:101EF0008DFA002002F08AFA2C2002F087FA0020E6
:101F000002F084FA292002F081FA002002F07EFA21
:101F1000262002F07BFA002002F078FA242002F05A
:101F200075FA002002F072FA242002F06FFA002005
:101F300002F06CFA232002F069FA002002F066FA3F
:101F4000C42002F06FFA622002F060FA002002F072
:101F50005DFA052002F05AFA002002F057FA8420B8
:101F600002F054FA002002F051FAF02002F04EFA8A
:101F7000002002F04BFA182002F048FA002002F08C
:101F800045FAA42002F042FA002002F03FFA18209D
:101F900002F03CFA002002F039FA502002F036FA42
:101FA000002002F033FA0C2002F030FA002002F098
:101FB0002DFA172002F02AFA002002F027FA9520C5
:101FC00002F024FA002002F021FAF32002F01EFAB7
:101FD000002002F01BFAE62002F018FA002002F0BE
:101FE00015FAC52002F01EFA322002F00FFA002086
:101FF00002F00CFA442002F009FA002002F006FA7E
:10200000652002F003FA002002F000FA762002F0C8
:10201000FDF9002002F0FAF9882002F0F7F900201B
:1020200002F0F4F9C62002F0FDF9202002F0EEF9EA
:10203000002002F0EBF9172002F0E8F9002002F08E
:10204000E5F9012002F0E2F9002002F0DFF9C720F3
:1020500002F0E8F9002002F0D9F9002002F0D6F9E8
:10206000002002F0D3F9002002F0D0F9C82002F0DD
:10207000D9F9002002F0CAF9002002F0C7F90020C7
:1020800002F0C4F9002002F0C1F9C92002F0CAF937
:10209000002002F0BBF9002002F0B8F9002002F0A5
:1020A000B5F9002002F0B2F9002002F0AFF90020EB
:1020B00002F0ACF9002002F0A9F9002002F0A6F924
:1020C000002002F0A3F9002002F0A0F9002002F0A5
:1020D0009DF9002002F09AF9002002F097F9002003
:1020E00002F094F9002002F091F9002002F08EF93C
:1020F000E02002F097F9162002F088F9002002F0A3
:1021000085F91C2002F082F9002002F07FF92120DD
:1021100002F07CF9002002F079F9362002F076F91D
:10212000002002F073F9462002F070F9002002F05E
:102130006DF9522002F06AF9002002F067F964207C
:1021400002F064F9002002F061F97A2002F05EF9F1
:10215000002002F05BF98B2002F058F9002002F019
:1021600055F9992002F052F9002002F04FF9A82009
:1021700002F04CF9002002F049F9B92002F046F9CA
:10218000002002F043F9C42002F040F9002002F0E0
:102190003DF9CA2002F03AF9002002F037F9D220C6
:1021A00002F034F9002002F031F9D92002F02EF9C2
:1021B000002002F02BF9E02002F028F9002002F0C4
:1021C00025F9F32002F022F9002002F01FF9E120A6
:1021D00002F028F9162002F019F9002002F016F991
:1021E0001C2002F013F9002002F010F9222002F066
:1021F0000DF9002002F00AF9362002F007F900205C
:1022000002F004F9452002F001F9002002F0FEF886
:10221000522002F0FBF8002002F0F8F8642002F0EF
:10222000F5F8002002F0F2F87A2002F0EFF8002032
:1022300002F0ECF88B2002F0E9F8002002F0E6F85A
:10224000992002F0E3F8002002F0E0F8A82002F064
:10225000DDF8002002F0DAF8B92002F0D7F800200B
:1022600002F0D4F8C42002F0D1F8002002F0CEF839
:10227000CA2002F0CBF8002002F0C8F8D22002F009
:10228000C5F8002002F0C2F8D82002F0BFF8002004
:1022900002F0BCF8E02002F0B9F8002002F0B6F835
:1022A000F32002F0B3F8002002F0B0F8E22002F0D0
:1022B000B9F8052002F0AAF8002002F0A7F80B20D8
:1022C00002F0A4F8002002F0A1F81B2002F09EF812
:1022D000002002F09BF8342002F098F8002002F071
:1022E00095F8442002F092F8002002F08FF84F2079
:1022F00002F08CF8002002F089F8612002F086F8E4
:10230000002002F083F8792002F080F8002002F02B
:102310007DF8882002F07AF8002002F077F8972004
:1023200002F074F8002002F071F8A62002F06EF8B6
:10233000002002F06BF8B72002F068F8002002F0ED
:1023400065F8C22002F062F8002002F05FF8C720B2
:1023500002F05CF8002002F059F8D12002F056F8A3
:10236000002002F053F8D62002F050F8002002F0CE
:102370004DF8DD2002F04AF8002002F047F8F32083
:1023800002F044F8002002F041F8E32002F04AF89D
:10239000052002F03BF8002002F038F80A2002F095
:1023A00035F8002002F032F81C2002F02FF800204F
:1023B00002F02CF8332002F029F8002002F026F871
:1023C000442002F023F8002002F020F8502002F010
:1023D0001DF8002002F01AF8622002F017F8002021
:1023E00002F014F8782002F011F8002002F00EF844
:1023F000882002F00BF8002002F008F8972002F085
:1024000005F8002002F002F8A62001F0FFFF0020EE
:1024100001F0FCFFB72001F0F9FF002001F0F6FF0A
:10242000C22001F0F3FF002001F0F0FFC72001F00F
:10243000EDFF002001F0EAFFD12001F0E7FF0020CE
:1024400001F0E4FFD52001F0E1FF002001F0DEFF04
:10245000DD2001F0DBFF002001F0D8FFF32001F0C8
:10246000D5FF002001F0D2FFE42001F0DBFF0120C6
:1024700001F0CCFF002001F0C9FF012001F0C6FFF0
:10248000002001F0C3FF022001F0C0FF002001F096
:10249000BDFF2A2001F0BAFF002001F0B7FF3C2069
:1024A00001F0B4FF002001F0B1FF4B2001F0AEFFBE
:1024B000002001F0ABFF5D2001F0A8FF002001F03B
:1024C000A5FF742001F0A2FF002001F09FFF8420EF
:1024D00001F09CFF002001F099FF932001F096FF8E
:1024E000002001F093FFA22001F090FF002001F0F6
:1024F0008DFFB32001F08AFF002001F087FFBE208E
:1025000001F084FF002001F081FFC42001F07EFF74
:10251000002001F07BFFCD2001F078FF002001F0CA
:1025200075FFD32001F072FF002001F06FFFDD2066
:1025300001F06CFF002001F069FFF32001F066FF5D
:10254000002001F063FFE52001F06CFF002001F0A6
:102550005DFF002001F05AFF002001F057FF00202E
:1025600001F054FF022001F051FF002001F04EFF66
:10257000292001F04BFF002001F048FF3C2001F032
:1025800045FF002001F042FF4B2001F03FFF0020FB
:1025900001F03CFF5D2001F039FF002001F036FF23
:1025A000742001F033FF002001F030FF842001F09F
:1025B0002DFF002001F02AFF932001F027FF0020CB
:1025C00001F024FFA22001F021FF002001F01EFFF6
:1025D000B32001F01BFF002001F018FFBE2001F026
:1025E00015FF002001F012FFC42001F00FFF0020B2
:1025F00001F00CFFCD2001F009FF002001F006FFE3
:10260000D32001F003FF002001F000FFDC2001F0E7
:10261000FDFE002001F0FAFEF32001F0F7FE00209D
:1026200001F0F4FEE62001F0FDFE112001F0EEFEC7
:10263000002001F0EBFE342001F0E8FE002001F064
:10264000E5FE562001F0E2FE002001F0DFFE7620DC
:1026500001F0DCFE002001F0D9FE772001F0D6FE6B
:10266000002001F0D3FE662001F0D0FE002001F032
:10267000CDFE882001F0CAFE002001F0C7FE99209F
:1026800001F0C4FE002001F0C1FEBB2001F0BEFE3F
:10269000002001F0BBFE992001F0B8FE002001F0FF
:1026A000B5FE662001F0B2FE002001F0AFFE55201D
:1026B00001F0ACFE002001F0A9FE552001F0A6FEBD
:1026C000002001F0A3FE452001F0A0FE002001F053
:1026D0009DFE432001F09AFE002001F097FE442069
:1026E00001F094FE002001F091FEE72001F09AFE37
:1026F000322001F08BFE002001F088FE552001F011
:1027000085FE002001F082FE762001F07FFE002091
:1027100001F07CFE662001F079FE002001F076FEDB
:10272000672001F073FE002001F070FE672001F0C9
:102730006DFE002001F06AFE872001F067FE002098
:1027400001F064FE992001F061FE002001F05EFEC0
:10275000BB2001F05BFE002001F058FE992001F043
:1027600055FE002001F052FE772001F04FFE0020C0
:1027700001F04CFE442001F049FE002001F046FE2D
:10278000562001F043FE002001F040FE232001F01E
:102790003DFE002001F03AFE332001F037FE00201C
:1027A00001F034FE452001F031FE002001F02EFE44
:1027B000E82001F037FE002001F028FE002001F0A3
:1027C00025FE992001F022FE002001F01FFE872047
:1027D00001F01CFE002001F019FE882001F016FE19
:1027E000002001F013FE772001F010FE002001F020
:1027F0000DFE662001F00AFE002001F007FE882091
:1028000001F004FE002001F001FEAA2001F0FEFD0F
:10281000002001F0FBFDBB2001F0F8FD002001F0DD
:10282000F5FD992001F0F2FD002001F0EFFD66209A
:1028300001F0ECFD002001F0E9FD552001F0E6FD7E
:10284000002001F0E3FD552001F0E0FD002001F043
:10285000DDFD442001F0DAFD002001F0D7FD442029
:1028600001F0D4FD002001F0D1FD552001F0CEFD96
:10287000002001F0CBFDE92001F0D4FDAA2001F0F9
:10288000C5FD002001F0C2FD002001F0BFFD0020C9
:1028900001F0BCFD002001F0C5FDAA2001F0B6FD4D
:1028A000CF2001F0BFFD002001F0B0FD002001F0BD
:1028B000ADFD002001F0AAFD002001F0A7FD0020E1
:1028C00001F0A4FD002001F0A1FD002001F09EFD1B
:1028D000002001F09BFD002001F098FD002001F098
:1028E00095FD002001F092FD002001F08FFD0020F9
:1028F00001F08CFD002001F089FD002001F086FD33
:10290000002001F083FD002001F080FDF02001F0A7
:1029100089FD002001F07AFD502001F077FD0020B4
:1029200001F074FD002001F071FD002001F06EFD4A
:10293000F32001F077FD002001F068FDF92001F09F
:1029400071FD062001F062FD102001F05FFD2920DD
:1029500001F05CFD002001F059FD3A2001F062FD1C
:10296000552001F053FD112001F05CFD6420FDF7BE
:102970004FFF292001F056FD352001F053FD0020C6
:1029800001F044FD512001F04DFDFF2001F03EFD1E
:10299000532001F047FD2C2001F038FD552001F0B7
:1029A00041FD822001F032FDBDE810402C2001F0F5
:1029B00039BD2DE9F05F4FF470435521184601F001
:1029C00047FD4FF20104AA21204601F041FD651C9C
:1029D0005221284601F03CFDA61C0821304601F09A
:1029E00037FDE71C0121384601F032FD0D214FF47F
:1029F000304001F02DFD0D214BF2010001F028FDCA
:102A00000D214BF2020001F023FD4FF43648342132
:102A1000404601F01DFD34214BF2016001F018FD2C
:102A200034214BF2026001F013FD4FF431490D21C6
:102A3000484601F00DFD4BF2011A0D21504601F000
:102A400007FD0D214BF2021001F002FD4FF4374B50
:102A50003421584601F0FCFC34214BF2017001F0A6
:102A6000F7FC34214BF2027001F0F2FC00214FF42C
:102A7000324001F0EDFC00214BF2012001F0E8FCB6
:102A800000214BF2022001F0E3FC24214FF43840F6
:102A900001F0DEFC24214BF6010001F0D9FC2421D9
:102AA0004BF6020001F0D4FC01214FF43F4001F04D
:102AB000CFFC0F214FF4334001F0CAFC0F214BF241
:102AC000013001F0C5FC0F214BF2023001F0C0FCD7
:102AD00034214FF4394001F0BBFC34214BF6011096
:102AE00001F0B6FC34214BF6021001F0B1FC0821D4
:102AF0004FF4354001F0ACFC08214BF2015001F0DD
:102B0000A7FC08214BF2025001F0A2FC03214FF474
:102B1000424001F09DFC24214FF43A4001F098FC22
:102B200024214BF6012001F093FC24214BF60220D6
:102B300001F08EFC00214FF43C4001F089FC78212B
:102B40004BF6014001F084FC00214BF6024001F0FD
:102B50007FFC00214FF43D4001F07AFC78214BF6D8
:102B6000015001F075FC00214BF6025001F070FCA1
:102B700000214FF43E4001F06BFC64214BF60160F4
:102B800001F066FC00214FF4514001F061FC33215B
:102B90004DF2011001F05CFC00214DF2021001F039
:102BA00057FC34214DF2031001F052FC00214DF28C
:102BB000041001F04DFC3A214DF2051001F048FCE3
:102BC00000214DF2061001F043FC4A214DF207109E
:102BD00001F03EFC00214DF2081001F039FC5C21AF
:102BE0004DF2091001F034FC00214DF20A1001F001
:102BF0002FFC81214DF20B1001F02AFC00214DF237
:102C00000C1001F025FCA6214DF20D1001F020FC66
:102C100000214DF20E1001F01BFCE5214DF20F10CA
:102C200001F016FC01214DF2101001F011FC1321EE
:102C30004DF2111001F00CFC01214DF2121001F0C7
:102C400007FC54214DF2131001F002FC01214DF25A
:102C5000141001F0FDFB82214DF2151001F0F8FB7C
:102C600001214DF2161001F0F3FBCA214DF21710AD
:102C700001F0EEFB02214DF2181001F0E9FB0021FA
:102C80004DF2191001F0E4FB02214DF21A1001F08F
:102C9000DFFB01214DF21B1001F0DAFB02214DF2A6
:102CA0001C1001F0D5FB34214DF21D1001F0D0FBBA
:102CB00002214DF21E1001F0CBFB67214DF21F10D7
:102CC00001F0C6FB02214DF2201001F0C1FB84216E
:102CD0004DF2211001F0BCFB02214DF2221001F057
:102CE000B7FBA4214DF2231001F0B2FB02214DF2FB
:102CF000241001F0ADFBB7214DF2251001F0A8FB27
:102D000002214DF2261001F0A3FBCF214DF2271036
:102D100001F09EFB02214DF2281001F099FBDE210B
:102D20004DF2291001F094FB02214DF22A1001F01E
:102D30008FFBF2214DF22B1001F08AFB02214DF2A4
:102D40002C1001F085FBFE214DF22D1001F080FBCF
:102D500003214DF22E1001F07BFB10214DF22F10BC
:102D600001F076FB03214DF2301001F071FB3321AD
:102D70004DF2311001F06CFB03214DF2321001F0E5
:102D800067FB6D214DF2331001F062FB00214FF41F
:102D9000524001F05DFB33214DF2012001F058FB60
:102DA00000214DF2022001F053FB34214DF20320AB
:102DB00001F04EFB00214DF2042001F049FB3A21C5
:102DC0004DF2052001F044FB00214DF2062001F0F8
:102DD0003FFB4A214DF2072001F03AFB00214DF262
:102DE000082001F035FB5C214DF2092001F030FB99
:102DF00000214DF20A2001F02BFB81214DF20B2026
:102E000001F026FB00214DF20C2001F021FBA62150
:102E10004DF20D2001F01CFB00214DF20E2001F0BF
:102E200017FBE5214DF20F2001F012FB01214DF2BD
:102E3000102001F00DFB13214DF2112001F008FBD1
:102E400001214DF2122001F003FB54214DF2132019
:102E500001F0FEFA01214DF2142001F0F9FA82216D
:102E60004DF2152001F0F4FA01214DF2162001F087
:102E7000EFFACA214DF2172001F0EAFA02214DF2D1
:102E8000182001F0E5FA00214DF2192001F0E0FAD6
:102E900002214DF21A2001F0DBFA01214DF21B2034
:102EA00001F0D6FA02214DF21C2001F0D1FA3421B2
:102EB0004DF21D2001F0CCFA02214DF21E2001F04E
:102EC000C7FA67214DF21F2001F0C2FA02214DF22C
:102ED000202001F0BDFA84214DF2212001F0B8FA42
:102EE00002214DF2222001F0B3FAA4214DF2232059
:102EF00001F0AEFA02214DF2242001F0A9FAB72127
:102F00004DF2252001F0A4FA02214DF2262001F015
:102F10009FFACF214DF2272001F09AFA02214DF2BB
:102F2000282001F095FADE214DF2292001F090FAD7
:102F300002214DF22A2001F08BFAF2214DF22B20D2
:102F400001F086FA02214DF22C2001F081FAFE21D7
:102F50004DF22D2001F07CFA03214DF22E2001F0DC
:102F600077FA10214DF22F2001F072FA03214DF271
:102F7000302001F06DFA33214DF2312001F068FA72
:102F800003214DF2322001F063FA6D214DF233201E
:102F900001F05EFA00214FF4534001F059FA332159
:102FA0004DF2013001F054FA00214DF2023001F0EF
:102FB0004FFA34214DF2033001F04AFA00214DF26C
:102FC000043001F045FA3A214DF2053001F040FAA3
:102FD00000214DF2063001F03BFA4A214DF2073054
:102FE00001F036FA00214DF2083001F031FA5C218F
:102FF0004DF2093001F02CFA00214DF20A3001F0B7
:1030000027FA81214DF20B3001F022FA00214DF216
:103010000C3001F01DFAA6214DF20D3001F018FA26
:1030200000214DF20E3001F013FAE5214DF20F3080
:1030300001F00EFA01214DF2103001F009FA1321CE
:103040004DF2113001F004FA01214DF2123001F07D
:10305000FFF954214DF2133001F0FAF901214DF23C
:10306000143001F0F5F982214DF2153001F0F0F93C
:1030700001214DF2163001F0EBF9CA214DF2173063
:1030800001F0E6F902214DF2183001F0E1F90021DA
:103090004DF2193001F0DCF902214DF21A3001F045
:1030A000D7F901214DF21B3001F0D2F902214DF286
:1030B0001C3001F0CDF934214DF21D3001F0C8F97A
:1030C00002214DF21E3001F0C3F967214DF21F308D
:1030D00001F0BEF902214DF2203001F0B9F984214E
:1030E0004DF2213001F0B4F902214DF2223001F00D
:1030F000AFF9A4214DF2233001F0AAF902214DF2DB
:10310000243001F0A5F9B7214DF2253001F0A0F9E6
:1031100002214DF2263001F09BF9CF214DF22730EC
:1031200001F096F902214DF2283001F091F9DE21EB
:103130004DF2293001F08CF902214DF22A3001F0D4
:1031400087F9F2214DF22B3001F082F902214DF284
:103150002C3001F07DF9FE214DF22D3001F078F98F
:1031600003214DF22E3001F073F910214DF22F3072
:1031700001F06EF903214DF2303001F069F933218D
:103180004DF2313001F064F903214DF2323001F09B
:103190005FF96D214DF2333001F05AF900214FF4FF
:1031A000544001F055F933214DF2014001F050F93E
:1031B00000214DF2024001F04BF934214DF2034061
:1031C00001F046F900214DF2044001F041F93A21A5
:1031D0004DF2054001F03CF900214DF2064001F0AE
:1031E00037F94A214DF2074001F032F900214DF242
:1031F000084001F02DF95C214DF2094001F028F959
:1032000000214DF20A4001F023F981214DF20B40DB
:1032100001F01EF900214DF20C4001F019F9A62130
:103220004DF20D4001F014F900214DF20E4001F075
:103230000FF9E5214DF20F4001F00AF901214DF29D
:10324000104001F005F913214DF2114001F000F991
:1032500001214DF2124001F0FBF854214DF21340D0
:1032600001F0F6F801214DF2144001F0F1F882214D
:103270004DF2154001F0ECF801214DF2164001F03D
:10328000E7F8CA214DF2174001F0E2F802214DF2B1
:10329000184001F0DDF800214DF2194001F0D8F896
:1032A00002214DF21A4001F0D3F801214DF21B40EA
:1032B00001F0CEF802214DF21C4001F0C9F8342192
:1032C0004DF21D4001F0C4F802214DF21E4001F004
:1032D000BFF867214DF21F4001F0BAF802214DF20C
:1032E000204001F0B5F884214DF2214001F0B0F802
:1032F00002214DF2224001F0ABF8A4214DF223400F
:1033000001F0A6F802214DF2244001F0A1F8B72106
:103310004DF2254001F09CF802214DF2264001F0CB
:1033200097F8CF214DF2274001F092F802214DF29B
:10333000284001F08DF8DE214DF2294001F088F897
:1033400002214DF22A4001F083F8F2214DF22B4088
:1033500001F07EF802214DF22C4001F079F8FE21B7
:103360004DF22D4001F074F803214DF22E4001F092
:103370006FF810214DF22F4001F06AF803214DF251
:10338000304001F065F833214DF2314001F060F832
:1033900003214DF2324001F05BF86D214DF23340D4
:1033A00001F056F800214FF4554001F051F8332157
:1033B0004DF2015001F04CF800214DF2025001F0A5
:1033C00047F834214DF2035001F042F800214DF24C
:1033D000045001F03DF83A214DF2055001F038F863
:1033E00000214DF2065001F033F84A214DF207500A
:1033F00001F02EF800214DF2085001F029F85C216F
:103400004DF2095001F024F800214DF20A5001F06C
:103410001FF881214DF20B5001F01AF800214DF2F6
:103420000C5001F015F8A6214DF20D5001F010F8E6
:1034300000214DF20E5001F00BF8E5214DF20F5036
:1034400001F006F801214DF2105001F001F81321AE
:103450004DF2115000F0FCFF01214DF2125000F02E
:10346000F7FF54214DF2135000F0F2FF01214DF20D
:10347000145000F0EDFF82214DF2155000F0E8FFEE
:1034800001214DF2165000F0E3FFCA214DF2175012
:1034900000F0DEFF02214DF2185000F0D9FF0021AC
:1034A0004DF2195000F0D4FF02214DF21A5000F0F5
:1034B000CFFF01214DF21B5000F0CAFF02214DF257
:1034C0001C5000F0C5FF34214DF21D5000F0C0FF2C
:1034D00002214DF21E5000F0BBFF67214DF21F503C
:1034E00000F0B6FF02214DF2205000F0B1FF842120
:1034F0004DF2215000F0ACFF02214DF2225000F0BD
:10350000A7FFA4214DF2235000F0A2FF02214DF2AB
:10351000245000F09DFFB7214DF2255000F098FF98
:1035200002214DF2265000F093FFCF214DF227509B
:1035300000F08EFF02214DF2285000F089FFDE21BD
:103540004DF2295000F084FF02214DF22A5000F084
:103550007FFFF2214DF22B5000F07AFF02214DF255
:103560002C5000F075FFFE214DF22D5000F070FF41
:1035700003214DF22E5000F06BFF10214DF22F5021
:1035800000F066FF03214DF2305000F061FF33215F
:103590004DF2315000F05CFF03214DF2325000F04B
:1035A00057FF6D214DF2335000F052FF00214FF4D0
:1035B000564000F04DFF33214DF2016000F048FF0E
:1035C00000214DF2026000F043FF34214DF2036010
:1035D00000F03EFF00214DF2046000F039FF3A2177
:1035E0004DF2056000F034FF00214DF2066000F05E
:1035F0002FFF4A214DF2076000F02AFF00214DF213
:10360000086000F025FF5C214DF2096000F020FF0A
:1036100000214DF20A6000F01BFF81214DF20B608A
:1036200000F016FF00214DF20C6000F011FFA62102
:103630004DF20D6000F00CFF00214DF20E6000F025
:1036400007FFE5214DF20F6000F002FF01214DF26E
:10365000106000F0FDFE13214DF2116000F0F8FE45
:1036600001214DF2126000F0F3FE54214DF213607F
:1036700000F0EEFE01214DF2146000F0E9FE82211F
:103680004DF2156000F0E4FE01214DF2166000F0ED
:10369000DFFECA214DF2176000F0DAFE02214DF282
:1036A000186000F0D5FE00214DF2196000F0D0FE48
:1036B00002214DF21A6000F0CBFE01214DF21B6099
:1036C00000F0C6FE02214DF21C6000F0C1FE342164
:1036D0004DF21D6000F0BCFE02214DF21E6000F0B4
:1036E000B7FE67214DF21F6000F0B2FE02214DF2DD
:1036F000206000F0ADFE84214DF2216000F0A8FEB4
:1037000002214DF2226000F0A3FEA4214DF22360BD
:1037100000F09EFE02214DF2246000F099FEB721D8
:103720004DF2256000F094FE02214DF2266000F07B
:103730008FFECF214DF2276000F08AFE02214DF26C
:10374000286000F085FEDE214DF2296000F080FE49
:1037500002214DF22A6000F07BFEF2214DF22B6037
:1037600000F076FE02214DF22C6000F071FEFE2189
:103770004DF22D6000F06CFE03214DF22E6000F042
:1037800067FE10214DF22F6000F062FE03214DF222
:10379000306000F05DFE33214DF2316000F058FEE4
:1037A00003214DF2326000F053FE6D214DF2336083
:1037B00000F04EFE5521184600F04AFEAA21204690
:1037C00000F046FE5221284600F042FE0821304615
:1037D00000F03EFE0021384600F03AFECC2148467B
:1037E00000F036FE0021504600F032FE0521404632
:1037F00000F02EFE7021584600F02AFE70214BF298
:10380000017000F025FE01214FF4384000F020FE49
:1038100003214BF6010000F01BFE03214BF60200D2
:1038200000F016FE03214BF6030000F011FE02210A
:103830004FF43C4000F00CFE00214BF6014000F03C
:1038400007FE00214BF6024000F002FED0214FF4AB
:10385000494000F0FDFD02214CF6011000F0F8FD9A
:1038600050214CF6021000F0F3FD50214CF60310ED
:1038700000F0EEFD50214CF6041000F0E9FD0021AF
:103880004FF4545000F0E4FD55214FF4685000F01F
:10389000DFFD4FF4885000F0C5FD0120FCF7B8FFB4
:1038A000BDE8F05F4FF4245000F0BCBD10B5E2203D
:1038B00000F0B8FD1D2000F0A9FD022000F0A6FDDB
:1038C000042000F0A3FD0120FCF7A2FFE02000F09F
:1038D000A9FD012000F09AFD0A20FCF799FFE020E5
:1038E00000F0A0FD032000F091FD0C20FCF790FFFC
:1038F000012000F097FD0A20FCF78AFFE62000F087
:1039000091FD2F2000F082FDFF2000F07FFDFF20C1
:1039100000F07CFDB02000F085FD202000F076FD59
:10392000002000F073FD032000F070FD40F21F3016
:1039300000F06CFD012000F069FD40F2DF1000F0A6
:1039400065FD002000F062FDB42000F06BFD042056
:1039500000F05CFD40F21F4000F058FD002000F038
:1039600055FD2E2000F052FD002000F04FFD0020FC
:1039700000F04CFD002000F049FD002000F046FD65
:10398000B62000F04FFD022000F040FD4FF4037020
:1039900000F03CFD002000F039FD172000F036FD5E
:1039A000152000F033FD002000F030FD002000F075
:1039B0002DFDF02000F036FD032000F027FD29202A
:1039C00000F030FDD02000F02DFD002000F01EFDA5
:1039D000BE2000F027FD052000F018FDFE2000F0BD
:1039E00015FD012000F012FD002000F00FFD002069
:1039F00000F00CFD002000F009FDB82000F012FDE1
:103A0000032000F003FD012000F000FDBA2000F0CB
:103A100009FDBDE81040012000F0F8BC10B51120F0
:103A200000F000FD7820FCF7F3FE362000F0FAFCF1
:103A3000002000F0EBFC3A2000F0F4FC052000F040
:103A4000E5FCB22000F0EEFC0C2000F0DFFC0C20C6
:103A500000F0DCFC002000F0D9FC332000F0D6FCA4
:103A6000332000F0D3FCB72000F0DCFC352000F060
:103A7000CDFCBB2000F0D6FC322000F0C7FCC020FB
:103A800000F0D0FC0C2000F0C1FCC22000F0CAFC09
:103A9000012000F0BBFCC32000F0C4FC102000F0AB
:103AA000B5FCC42000F0BEFC202000F0AFFCC62016
:103AB00000F0B8FC0F2000F0A9FCD02000F0B2FC10
:103AC000A42000F0A3FCA12000F0A0FCE02000F066
:103AD000A9FCD02000F09AFC002000F097FC022006
:103AE00000F094FC072000F091FC0A2000F08EFC0E
:103AF000282000F08BFC322000F088FC442000F0ED
:103B000085FC422000F082FC062000F07FFC0E20A5
:103B100000F07CFC122000F079FC142000F076FC10
:103B2000172000F073FCE12000F07CFCD02000F0B6
:103B30006DFC002000F06AFC022000F067FC07200A
:103B400000F064FC0A2000F061FC282000F05EFC1C
:103B5000312000F05BFC542000F058FC472000F0BE
:103B600055FC0E2000F052FC1C2000F04FFC1720EA
:103B700000F04CFC1B2000F049FC1E2000F046FC2D
:103B80002A2000F04FFC002000F040FC002000F054
:103B90003DFC002000F03AFCEF2000F037FC2B2029
:103BA00000F040FC002000F031FC002000F02EFC72
:103BB000012000F02BFC3F2000F028FCBDE8104065
:103BC000292000F02FBC10B5112000F02BFC78202C
:103BD000FCF71EFE362000F025FC482000F016FC05
:103BE0003A2000F01FFC552000F010FCF02000F0FF
:103BF00019FCC32000F00AFCF02000F013FC962012
:103C000000F004FCB42000F00DFC012000F0FEFBED
:103C1000B62000F007FC0A2000F0F8FBA22000F01C
:103C2000F5FBB72000F0FEFBC62000F0EFFBB9204B
:103C300000F0F8FB022000F0E9FBE02000F0E6FBDA
:103C4000C02000F0EFFB802000F0E0FB162000F029
:103C5000DDFBC12000F0E6FB192000F0D7FBC220FD
:103C600000F0E0FBA72000F0D1FBC52000F0DAFB5C
:103C7000162000F0CBFBE82000F0D4FB402000F041
:103C8000C5FB8A2000F0C2FB002000F0BFFB002033
:103C900000F0BCFB292000F0B9FB192000F0B6FBB6
:103CA000A52000F0B3FB332000F0B0FBE02000F0D3
:103CB000B9FBF02000F0AAFB072000F0A7FB0D20C5
:103CC00000F0A4FB042000F0A1FB052000F09EFB07
:103CD000142000F09BFB362000F098FB542000F0ED
:103CE00095FB4C2000F092FB382000F08FFB132056
:103CF00000F08CFB142000F089FB2E2000F086FBE6
:103D0000342000F083FBE12000F08CFBF02000F079
:103D10007DFB102000F07AFB142000F077FB0E20D2
:103D200000F074FB0C2000F071FB082000F06EFB2B
:103D3000352000F06BFB442000F068FB4C2000F0C5
:103D400065FB262000F062FB102000F05FFB1220D4
:103D500000F05CFB2C2000F059FB322000F056FBF9
:103D6000F02000F05FFB3C2000F050FBF02000F062
:103D700059FB692000F04AFB7820FCF749FD21201F
:103D800000F050FBBDE81040292000F04BBB0000C4
:103D90002DE9F04F87B0D32000F044FB00F02AF962
:103DA000924CA08000F026F9A08000F023F94FF695
:103DB000FF7101EA0020A08000F01CF9A18849F2FF
:103DC00041380843A08047F2897545F2103947F21F
:103DD000967645F2105A49F6060741F6631B4045B0
:103DE0007DD0042000F01EFB00F004F9A08000F05C
:103DF00001F9A08000F0FEF84FF6FF7101EA002003
:103E0000A08000F0F7F8A1880843A0F50541A08044
:103E1000523965D0A84262D0D42000F003FB00F0F4
:103E2000E9F8A08000F0E6F8A08000F0E3F84FF693
:103E3000FF7101EA0020A08000F0DCF8A1880843AF
:103E4000A080484579D0D32000F0ECFA00F0D2F8F9
:103E5000A08000F0CFF8A08000F0CCF84FF6FF7102
:103E600001EA0020A08000F0C5F8A1880843A080E6
:103E7000B04262D055214FF4704000F0E9FAAA2117
:103E80004FF2010000F0E4FA52214FF2020000F07C
:103E9000DFFA08214FF2030000F0DAFA01214FF2B5
:103EA000040000F0D5FA4FF4454000F0BBFA00F0F2
:103EB000A1F84FF6FF7101EA0020A0804CF20150FA
:103EC00000F0B0FA00F096F8A1880843A080052021
:103ED000FCF79EFCA18851452FD0D32001E02CE0B7
:103EE00031E000F09FFA00F085F8A08000F082F841
:103EF000A08000F07FF84FF6FF7101EA0020A0805B
:103F000000F078F8A1880843A080B84215D0A1201D
:103F100000F088FA00F06EF8A08000F06BF84FF621
:103F2000FF7101EA0020A08000F064F8A188084336
:103F3000A0F5AE41A080613907D0A088A84207D182
:103F4000FFF76CFD24E0A580FAE7A4F804B01AE0BE
:103F5000404502D1FDF7FBFA1AE0484502D1FDF7D2
:103F6000AEFD15E0B04202D1FFF72DFE10E0504546
:103F700002D1FEF71EFD0BE0B84202D1FDF7FEFBB9
:103F800006E0584504D1FFF791FC642000F016FAD2
:103F90001648A1885038A94201D103210EE0B94248
:103FA00003D0414501D0514501D1022106E04945E8
:103FB00003D0B14201D0594508D1012100910291AD
:103FC000036B826840686946FCF7AEFB0020FDF792
:103FD0003DFA0122D1030648FCF780FD4FF6FF7041
:103FE000FDF71CFA07B0BDE8F08F0000C00000200C
:103FF0000004024008B50220401EFDD24FF0D84018
:10400000B0F88000ADF80000BDF8000008BD000069
:1040100070B55F4C00232146A279898841F663166A
:10402000012A01D01AB10CE0B14202D109E0B1423B
:1040300007D1082805D2DFE800F0161812140C1971
:10404000100E082812D2DFE800F0110406080A0C4E
:104050000E1080230AE0402308E0C02306E020235E
:1040600004E0602302E0A02300E0E023362045F2D4
:104070001055A94200D10002A1F51342413A07D0E0
:10408000A1F5EE42893A03D0A1F5EE42963A01D16C
:1040900043F00803194600F0DBF9A188B1420AD0C9
:1040A00098062088628802D5904202D303E09042AD
:1040B00001D9228060806089A94240D100F0B2F924
:1040C000002000F0A3F96089401C80B200F0AAF93A
:1040D000002000F09BF96089801C80B200F0A2F9FA
:1040E0002088401EC0F30F2000F090F96089C01CAA
:1040F00080B200F097F92078401EC0B200F086F937
:10410000A08900F08FF9002000F080F9A089401C00
:1041100080B200F087F9002000F078F9A089801CB7
:1041200080B200F07FF96088401EC0F30F2000F0DD
:104130006DF9A089C01C80B200F074F921E000F094
:1041400071F9002000F062F9002000F05FF920888A
:10415000401EC0F30F2000F059F92078401EC0B275
:1041600000F054F9A08900F05DF9002000F04EF94C
:10417000002000F04BF96088401EC0F30F2000F0D3
:1041800045F9A078BDE87040401EC0B200F03EB9CD
:10419000C0000020F0B53B4A0D460446060A91884F
:1041A00010462F0A4089A1F5C853633B16D0A1F5EC
:1041B000AA43103B4CD000F035F9304600F026F908
:1041C000E0B200F023F9908900F02CF9384600F0B5
:1041D0001DF9E8B2BDE8F04000F018B9917931B3AB
:1041E00000F020F9304600F011F9E0B200F00EF9CD
:1041F0001088401EC0F30F2000F008F91078401E10
:104200005FFA80F000F002F9908900F00BF938466F
:1042100000F0FCF8E8B200F0F9F85088401EC0F356
:104220000F2000F0F3F89078401EC0B2D2E711885A
:10423000091B491E8CB200F0F5F8002000F0E6F8EA
:10424000002000F0E3F8200A00F0E0F8E0B2D9E73F
:1042500000F0E8F8304600F0D9F85089401C80B2F0
:1042600000F0E0F8E0B200F0D1F8908900F0DAF860
:10427000384600F0CBF89089401C80B200F0D2F8AC
:10428000A7E70000C00000202DE9FF4F1D460C46A7
:104290008B46580700D0012000EBD500690810FBC1
:1042A00001F0203A00F0FF0AD0B20C2D0AD0102DF8
:1042B0000CD0182D0ED0202D46D1244901EB8016AC
:1042C00000203EE000EB4001214806E0214901EBDF
:1042D0000016F5E700EBC0011F4800EB8106EFE791
:1042E00016F808704FF00009380601D50E9A03E061
:1042F0000D9828B91948026821460098FDF71CF965
:104300007806070E1648641CA4B24088A0421BD948
:10431000A4EB0B00A8420AD100985C46401C80B276
:1043200000900F480188009881420DD906E009F1FC
:10433000010000F0FF09B9F1080FD5D308F1010021
:10434000C0B280465045CBD3BDE8FF8FF65F000872
:1043500036480008AA4C00089A5200081C000020A9
:10436000C00000202DE9FC4F044600F0FF091019A1
:104370000D46DDE90BB61FFA80F8581987B24FF0E9
:10438000000A13E0444503D305EB0B004C4685B20D
:10439000BD4210D20D985B46CDE900A029462046CB
:1043A000FFF772FF04EB5B0084B2761C3278A2F157
:1043B00020005E28E6D9BDE8FC8F000010B502465B
:1043C000BE2000F02FF8052000F020F8104600F085
:1043D00014F99FED0C1B53EC112B00F021F900F0A8
:1043E000DFF880B200F012F8012000F00FF8FF2093
:1043F00000F00CF8002000F009F8BDE810400020A3
:1044000000F004B8666666666666044001B5BDF8ED
:104410000000ADF80000BDF800004FF0D841A1F851
:10442000800008BD01B5BDF80000ADF80000BDF882
:1044300000004FF0D841A1F87E0008BD03484FF0BE
:10444000D8410089A1F87E0070470000C00000201C
:104450004FF0D84222F87E0F5180704786B000247A
:10446000FCF750FBFCF770FFFCF7DAFEFCF794FE5C
:10447000FFF78EFC3B484FF478453CA105603A4875
:10448000828803A8FBF76CFFDFF8ECB003AF4FF0B6
:1044900020084FF0180910264FF4007A0C2C0DD28A
:1044A000DFE804F006093A3C3E4144474A4D505388
:1044B0004FF6FF7000E00020FCF7B0FF2FA1CDF811
:1044C0000080CDE901152023F02228210A20FFF7E2
:1044D00049FF2CA1CDF80090CDE901151823F02259
:1044E00050210A20FFF73EFF29A00096CDE90105E3
:1044F0001023F0226E210A20FFF734FF0096CDE949
:1045000001751023F02282210A20FFF72BFF641C83
:10451000E4B20C2C1CD01CE01F20CDE72846CBE7D2
:104520004FF61F00C8E74FF4FC60C5E740F2FF708C
:10453000C2E74FF6E070BFE74FF60740BCE748F22E
:104540003040B9E74CF21860B6E74BF64040B3E7AD
:10455000002451465846FCF7B9FA4FF47A70FCF73C
:1045600057F99BE718000020C00000204C4344206E
:1045700049443A25303458000014024053544D3316
:10458000320000005446544C4344205445535400D8
:1045900041544F4D40414C49454E54454B0000005D
:1045A0004FEA1153A3F58063D3F11E03A8BFD3F1E3
:1045B000200C08DB4FF0004242EAC12252EA50527E
:1045C00032FA03F0704709420BD4102BC4BF00200D
:1045D000704703F5787CBCF1FF3F05D04FF0FF300A
:1045E00070474FF00000704770B500F0C3F800BF8F
:1045F0004992248000207047F0E7B0FA80F310FA67
:1046000003F10AD0C3F11D0303F580634FEA415063
:104610004FEA035202EBD12170474FF00000704780
:10462000DFF848C170B51CEA111E1EBF1CEA131545
:104630009EEA0C0F95EA0C0F00F06F8081EA0304EC
:1046400023EA4C134EEAD47E21EA4C1141F4801146
:1046500043F48013AE44A1FB024CA0FB0365AEF112
:104660007F7E361955EB0C05A1FB034C4CF1000382
:10467000A0FB021C16EB0C06654153F10003094236
:1046800018BF46F0010613F4007F0BD14FEA033147
:104690004FEA0530340341EA155140EA16506FF0F5
:1046A00003020AE04FEAC3214FEAC520F40241EABF
:1046B000555140EA56506FF0020202EB2E4201EBD8
:1046C000025585EACE710AD05FEA440C18BF24F087
:1046D000004450F1000041F1000120EAD47040F2A2
:1046E000FE7C624500D270BDA84214BF4FF08044EA
:1046F0004FF04044002E08BF0024BEF1806FA8BFD9
:10470000A1F1C041BDE8704080F282804FF000000E
:1047100001F1C04101F0004170479EEA0C0F0CEA24
:10472000131518BF95EA0C0F06D04FF0000081EA70
:10473000030E0EF0004170BD00F01CF88900013E30
:1047400000F007B800F009B84FEA430C5FEA5C5C80
:1047500008D081EA030100F05BB84FEA410C5FEA40
:104760005C5CF6D14FF00000014970470000FF0784
:104770000000F87F0EF1020E2EF0030E5EF8046BBF
:10478000364205D4012A43EB030515F5001F12D864
:10479000012841EB010C1CF5001F0CD80ED14FEA8B
:1047A000D17C15F5001F0CEB4C0C0CF1020C08BF72
:1047B0004CEBD37C04E04FF0080C01E04FEAD37CD3
:1047C0000CEB4C0526FA05F606F00706B6F1040CCC
:1047D00006D20EEB860CBDE870404CF0010C604731
:1047E000DFE80CF0090B02024FF000414FF000002F
:1047F000A1F5002170BD19461046012851EB0104B6
:1048000018BFD4F5001484BF002001F0004170BD32
:104810000808A0F500114FEA310170474FF04070D1
:10482000E1EE100A704700000000000000000102E5
:104830000304060708090000000000000000000053
:104840000000000000003F400000000000000000E9
:104850003000400030004000000009000BC03D0067
:104860000BC03D00090018C024407FE02240318089
:104870000000180024C01B000D803240018003801E
:104880001C4027401C8007400040100060000000D2
:104890000000000000000000000000001F80204019
:1048A00040200000402020401F8000000000090040
:1048B00006001F80060009000000040004003F807D
:1048C0000400040000000010006000000000000070
:1048D00000000400040004000400040000000000C4
:1048E00000400000000000000000002001C00600A1
:1048F0003800400000001F802040204020401F80E2
:104900000000000010403FC000400000000018C040
:1049100021402240244018400000108020402440C4
:1049200024401B80000002000D0011003FC0014028
:1049300000003C80244024402440238000001F804D
:10494000244024403440038000003000200027C071
:104950003800200000001B802440244024401B809D
:1049600000001C0022C0224022401F8000000000E6
:10497000000008400000000000000000000004608B
:10498000000000000000000004000A001100208068
:10499000404009000900090009000900000000006A
:1049A0004040208011000A0004001800200023402D
:1049B0002400180000001F802040274029401F408D
:1049C0000000004007C039000F0001C00040204037
:1049D0003FC0244024401B8000001F802040204016
:1049E00020403080000020403FC0204020401F80F9
:1049F000000020403FC024402E4030C00000204036
:104A00003FC024402E00300000000F0010802040E6
:104A100022403380020020403FC0040004003FC019
:104A20002040204020403FC0204020400000006047
:104A3000202020203FC02000200020403FC02440F4
:104A40000B0030C0204020403FC0204000400040CC
:104A500000C03FC03C0003C03C003FC000002040FD
:104A60003FC00C4023003FC020001F80204020405A
:104A700020401F80000020403FC024402400180038
:104A800000001F802140214020E01FA000002040A6
:104A90003FC02440260019C0004018C024402440D4
:104AA000224031800000300020403FC020403000D4
:104AB000000020003F80004000403F802000200098
:104AC0003E0001C0070038002000380007C03C004D
:104AD00007C038000000204039C0060039C020401F
:104AE00000002000384007C038402000000030405F
:104AF00021C02640384020C00000000000007FE0B8
:104B0000402040200000000070000C0003800040A6
:104B100000000000402040207FE000000000000076
:104B200020004000200000000000001000100010D5
:104B30000010001000100000000040000000000005
:104B40000000000002800540054003C00040200036
:104B50003FC0044004400380000000000380044084
:104B600004400640000000000380044024403FC091
:104B700000400000038005400540034000000000A5
:104B800004401FC0244024402000000002E00550E3
:104B900005500650042020403FC00440040003C0DC
:104BA00000400000044027C000400000000000104A
:104BB0000010041027E00000000020403FC001402A
:104BC000070004C00440204020403FC00040004097
:104BD000000007C0040007C0040003C00000044038
:104BE00007C00440040003C00040000003800440EC
:104BF000044003800000041007F0045004400380C8
:104C00000000000003800440045007F0001004403E
:104C100007C00240040004000000000006400540F8
:104C2000054004C00000000004001F800440004054
:104C30000000040007800040044007C0004004005A
:104C4000070004C0018006000400060001C0070040
:104C500001C006000000044006C0010006C0044078
:104C600000000410071004E00180060004000000AA
:104C7000044005C00640044000000000000004009D
:104C80007BE040200000000000000000FFF000007A
:104C90000000000040207BE0040000000000400015
:104CA00080004000200020004000000000000000C4
:104CB00000000000000000000000000000000000F4
:104CC0001FCC000C000000000000000008003000B5
:104CD00060000800300060000000022003FC1E207D
:104CE000022003FC1E200220000000000E18110408
:104CF0003FFF10840C78000000000F0010840F3874
:104D000000C0077818840078000000780F8410C471
:104D100011240E9800E40084000808006800700068
:104D20000000000000000000000000000000000083
:104D300007E0181820044002000000004002200490
:104D4000181807E000000000000002400240018047
:104D50000FF00180024002400000008000800080CF
:104D60000FF800800080008000000001000D000EA0
:104D70000000000000000000000000000080008033
:104D8000008000800080008000800000000C000C8B
:104D900000000000000000000000000000060018F5
:104DA00000600180060018002000000007F00808DD
:104DB00010041004080807F00000000008040804AC
:104DC0001FFC000400040000000000000E0C101482
:104DD0001024104411840E0C000000000C18100464
:104DE0001104110412880C700000000000E0032080
:104DF000042408241FFC0024000000001F981084D5
:104E000011041104108810700000000007F00888D9
:104E10001104110418880070000000001C0010002C
:104E200010FC13001C001000000000000E3811449C
:104E30001084108411440E38000000000700088C14
:104E400010441044088807F0000000000000000033
:104E5000030C030C00000000000000000000000133
:104E6000010600000000000000000000008001407A
:104E70000220041008081004000002200220022072
:104E80000220022002200220000000001004080876
:104E90000410022001400080000000000E001200FB
:104EA000100C106C10800F00000003E00C1813E4CD
:104EB000142417C4082807D000000004003C03C4D1
:104EC0001C40074000E4001C000410041FFC1104F7
:104ED000110411040E880070000003E00C18100487
:104EE0001004100410081C10000010041FFC100413
:104EF00010041004080807F0000010041FFC11043F
:104F0000110417C410040818000010041FFC110439
:104F1000110017C010000800000003E00C18100476
:104F2000100410441C780040000010041FFC108482
:104F30000080008010841FFC100400001004100486
:104F40001FFC100410040000000000030001100109
:104F500010011FFE10001000000010041FFC1104BF
:104F600003801464181C1004000010041FFC1004BB
:104F7000000400040004000C000010041FFC1F00CB
:104F800000FC1F001FFC1004000010041FFC0C0498
:104F9000030000E010181FFC100007F008081004C0
:104FA00010041004080807F0000010041FFC10840F
:104FB0001080108010800F00000007F008181024E7
:104FC0001024101C080A07F2000010041FFC110432
:104FD000110011C011300E0C000400000E1C110451
:104FE0001084108410441C380000180010001004B5
:104FF0001FFC100410001800000010001FF810041F
:105000000004000410041FF8100010001E0011E03E
:10501000001C007013801C0010001FC0103C00E03A
:105020001F0000E0103C1FC000001004180C1634D4
:1050300001C001C01634180C100410001C00130429
:1050400000FC13041C00100000000804101C106475
:10505000108413041C04101800000000000000005D
:105060007FFE4002400240020000000030000C00C1
:1050700003800060001C00030000000040024002AA
:1050800040027FFE00000000000000000000200041
:10509000400040004000200000000001000100012D
:1050A000000100010001000100010000400040007B
:1050B0002000000000000000000000000098012413
:1050C00001440144014400FC000410001FFC00885E
:1050D00001040104008800700000000000700088D6
:1050E0000104010401040088000000000070008831
:1050F0000104010411081FFC0004000000F8014431
:1051000001440144014400C80000000001040104FE
:105110000FFC1104110411001800000000D6012931
:105120000129012901C90106000010041FFC0084A7
:1051300001000100010400FC000400000104190446
:1051400019FC00040004000000000000000300013E
:105150000101190119FE0000000010041FFC0024C9
:10516000004001B4010C0104000000001004100410
:105170001FFC0004000400000000010401FC010405
:10518000010001FC0104010000FC010401FC008499
:1051900001000100010400FC0004000000F801040B
:1051A00001040104010400F80000010101FF008571
:1051B00001040104008800700000000000700088F5
:1051C00001040104010501FF00010104010401FCC7
:1051D00000840104010001800000000000CC0124D3
:1051E00001240124012401980000000001000100B5
:1051F00007F80104010400000000010001F80004A8
:1052000000040004010801FC000401000180017099
:10521000000C001001600180010001F0010C003061
:1052200001C00030010C01F0010000000104018CFC
:1052300000740170018C0104000001010181017101
:10524000000E001801600180010000000184010CC3
:10525000013401440184010C000000000000000042
:10526000000001003EFC400240020000000000007F
:105270000000FFFF000000000000000040024002AC
:105280003EFC010000000000000000006000800003
:1052900080004000400020002000000000000000CE
:1052A00000000000000000000000000000000000FE
:1052B00000000000000000000000000000000000EE
:1052C000000000000000000000000000000F803817
:1052D0000FFE380F803800000000000000000000C2
:1052E00000000000000000000100000600000C00AB
:1052F000003800003100000600000C0000380000FB
:105300003000000000000000000061800067F80726
:10531000F980006180006180006180006180006729
:10532000F807F98000618000000000000000000024
:1053300001C0E003E0F00630080418081FFFFE0477
:105340000E080787F00381E000000000000001F074
:1053500000060C00040408060C7001F9C0000E00E1
:10536000003BE000EC18070808040C180003E000FC
:1053700000000001E00007F003F818041C080417FF
:105380000807E1D003C0E00023B0003C080020087B
:105390000000100000000000000100003100003299
:1053A00000001C00000000000000000000000000E1
:1053B00000000000000000000000000000000000ED
:1053C000000000000000000000007F0001FFC00797
:1053D00080F00C0018100004200002000000000003
:1053E000002000021000040C00180780F001FFC02C
:1053F000007F00000000000000000000000000002E
:105400000000000000004200006600006600003C52
:105410000000180003FFC0001800003C00006600F8
:1054200000660000420000000000080000080000C4
:10543000080000080000080001FFC0000800000884
:105440000000080000080000080000000000000143
:1054500000003100003200001C00000000000000CD
:10546000000000000000000000000000000000003C
:105470000000080000080000080000080000080004
:1054800000080000080000080000080000080000F4
:10549000000000000000000000003800003800009C
:1054A00038000000000000000000000000000000C4
:1054B00000000000000000000000000600001C00CA
:1054C0000070000180000E0000380000C0000700DE
:1054D000001C0000300000000000000000007F8081
:1054E00001FFE003807006001804000804000806AD
:1054F000001803807001FFE0007F800000000000C2
:105500000000000001000801000801000803FFF886
:1055100007FFF80000080000080000080000000075
:10552000000000000001C03802C0580400980401C7
:1055300018040218040418061C1803F81801E0F8EF
:1055400000000000000000000001C0E003C0F00403
:10555000000804080804080806180803F41801E7FE
:10556000F00001E000000000000000000000030067
:10557000000D000011000061000081080301080710
:10558000FFF80FFFF800010800010800000000000C
:10559000000000E007FCD006080806100806100806
:1055A000061008061838060FF00607C000000000B5
:1055B0000000000000003F8001FFE003843002088B
:1055C00018041008041008041008071810030FF03E
:1055D0000007C000000000000000000003C000073A
:1055E00000000600000600F80607F806180006E0AE
:1055F0000007000006000000000000000001E1E0DC
:1056000003F7F0063410041808041808040C080402
:105610000C0806161803F3F001C1E00000000000BA
:105620000000F80003FC30030638040208040208F6
:105630000402080404100308F001FFC0007F00000A
:10564000000000000000000000000000000000005A
:105650000000703800703800703800000000000052
:10566000000000000000000000000000000000003A
:10567000000000000000301A00301C000000000094
:10568000000000000000000000000000000000001A
:10569000000800001400002200004100008080018A
:1056A0000040020020040010080008000000000074
:1056B0000000210000210000210000210000210045
:1056C0000021000021000021000021000021000035
:1056D00000000000000000000800080400100200A4
:1056E00020010040008080004100002200001400E2
:1056F00000080000000000000003C00004C0000417
:105700000000080038080F380808380810000C306E
:105710000007E00003C000000000000000003F8020
:1057200000FFE0038070020F1006708804C0880438
:105730008308047F8802C09003012000FE4000001F
:10574000080000180001F8003E0801C2000702002E
:1057500007E20000FE00001FC80001F8000038004A
:10576000000804000807FFF807FFF8040808040809
:105770000804080804080806180803F41801E7F0EC
:105780000001E0000000000000003F8001FFE00396
:1057900080700200180400080400080400080400D7
:1057A000100600200780C000000004000807FFF872
:1057B00007FFF804000804000804000804001802A9
:1057C000001003807001FFE0007F800000000400F3
:1057D0000807FFF807FFF804080804080804080889
:1057E000040808043E0804000806001801006000D0
:1057F000000004000807FFF807FFF8040808040881
:1058000000040800040800043E0006000006000032
:10581000018000000000000000003F8001FFE00365
:10582000807006001804000804020804020802033D
:10583000F00783F000020000020004000807FFF8F0
:1058400007FFF8040808000800000800000800002E
:10585000080004080807FFF807FFF8040008000024
:105860000000000004000804000804000807FFF816
:1058700007FFF80400080400080400080000000006
:105880000000000000000006000007000001040006
:105890000104000104000307FFFE07FFFC040000F1
:1058A00004000004000004000807FFF807FFF804E4
:1058B0000C08001800003E0004C7800503C806005D
:1058C000F804003804001800000804000807FFF876
:1058D00007FFF804000800000800000800000800A6
:1058E000000800000800001800006000000004002C
:1058F0000807FFF807800807FC00007FC00003F8D6
:105900000007C000780007800807FFF807FFF804C9
:10591000000804000807FFF807000803C00000E0C3
:1059200000003800001E000007000001C00400F065
:1059300007FFF8040000000000007F8001FFE00383
:105940008070060018040008040008060018030010
:105950003001FFE0007F8000000004000807FFF82E
:1059600007FFF8040408040400040400040400040D
:105970000400060C0003F80001F000000000000025
:1059800000007F8001FFE00380700600880400882B
:105990000400C806003C03003E01FFE6007F8400CF
:1059A000000004000807FFF807FFF80408080408CF
:1059B00000040C00040F00040BC00610F003F038C4
:1059C00001E00800000800000001E0F803F03006E4
:1059D0003010041808041808040C08040C08020607
:1059E000180207F00781E0000000018000060000B7
:1059F00004000004000004000807FFF807FFF80493
:105A000000080400000400000600000180000400FB
:105A10000007FFE007FFF00400180000080000087E
:105A200000000800000800000804001007FFE00460
:105A3000000004000006000007E00007FE00041F4D
:105A4000E00001F80000380001E0043E0007C0005B
:105A500006000004000004000007E00007FFC00487
:105A60001FF80007C007F80007FF80043FF8000791
:105A7000C004F80007000004000000000004000853
:105A800006001807C07805F1C8003E00001F80041A
:105A900063E80780F806001804000800000004000E
:105AA0000006000007800007E008047C08001FF8DB
:105AB0000007F800180804E00807000006000004CA
:105AC00000000000000100080600380400F804038C
:105AD000E8040F08047C0805F00807C00807001850
